:100000000C9446000C945D000C945D000C945D0013
:100010000C945D000C945D000C945D000C945D00EC
:100020000C945D000C945D000C945D000C945D00DC
:100030000C945D000C945D000C945D000C945D00CC
:100040000C945D000C945D000C945D000C945D00BC
:100050000C945D000C945D000C945D000C945D00AC
:100060000C945D000C945D000C945D000C945D009C
:100070000C945D000C945D000C945D000C945D008C
:100080000C945D000C945D000C945D0011241FBE67
:10009000CFEFD0E4DEBFCDBF11E0A0E0B1E0E0E102
:1000A000F2E000E00BBF02C007900D92AE30B10746
:1000B000D9F70E9488000C9406010C940000CF939D
:1000C000DF9300D01F92CDB7DEB789837B836A832D
:1000D00089818A3031F48A819B81BC018DE00E9444
:1000E0005F0080EC90E0FC018081882F90E08072BE
:1000F0009927892BB1F386EC90E02981FC012083BC
:1001000080E090E00F900F900F90DF91CF910895D5
:10011000CF93DF9300D000D0CDB7DEB781E290E07F
:10012000FC01108282E290E02FEFFC01208384E248
:1001300090E0FC01108285E290E02FEFFC0120832B
:1001400087E290E0FC01108288E290E02FEFFC0152
:1001500020838AE290E02FEFFC0120838BE290E085
:10016000FC01108219821A821B821C82198280E291
:1001700090E0FC01208183E290E0FC018081280F67
:1001800086E290E0FC018081820F8C838C818D3827
:1001900010F4198205C08C818D3810F081E08983BC
:1001A00080E290E0FC018081282F30E086E290E040
:1001B000FC018081882F90E0A901481B590BCA01DE
:1001C000813591059CF486E290E0FC018081282F26
:1001D00030E080E290E0FC018081882F90E0A9016E
:1001E000481B590BCA018135910514F082E08A83BE
:1001F0008C81982F9C7F8981982B8A81892B8B8376
:100200008BE290E02B81FC012083B0CFF894FFCFEC
:0E02100000000002000000005F00000000007F
:00000001FF
